:020000040800F2
:10000000780700205954000885030008870300087A
:10001000890300088B0300088D030008000000001E
:100020000000000000000000000000008F03000836
:1000300091030008000000009303000895030008E6
:100040007354000873540008735400087354000874
:100050007354000873540008735400087354000864
:100060007354000873540008735400087354000854
:100070007354000873540008735400087354000844
:100080007354000873540008735400087354000834
:100090007354000873540008735400086D4E000830
:1000A0007354000873540008735400087354000814
:1000B00073540008754F0008735400087354000807
:1000C00073540008735400087354000873540008F4
:1000D00073540008F1530008735400087354000867
:1000E00073540008735400087354000873540008D4
:1000F00073540008735400087354000873540008C4
:100100007354000873540008D55000087354000855
:100110007354000873540008D35100087354000846
:100120007354000873540008735400087354000893
:100130007354000873540008735400087354000883
:100140007354000873540008735400087354000873
:100150007354000873540008735400087354000863
:100160007354000873540008735400087354000853
:100170007354000873540008735400087354000843
:10018000735400087354000800F002F800F03CF8C3
:100190000AA090E8000C82448344AAF10107DA45E2
:1001A00001D100F031F8AFF2090EBAE80F0013F0F8
:1001B000010F18BFFB1A43F00103184744890000E0
:1001C00064890000103A24BF78C878C1FAD8520771
:1001D00024BF30C830C144BF04680C6070470000C1
:1001E0000023002400250026103A28BF78C1FBD840
:1001F000520728BF30C148BF0B6070471FB506F0DB
:10020000E1FF1FBD10B510BD06F06BFE1146FFF7F4
:10021000F5FF00F05AF806F089FE03B4FFF7F2FF8D
:1002200003BC05F08BF800002DE9F05F4A48007828
:10023000022848D1042000F01AFB48480021C0F8E9
:100240008C12C0F884120122C0F88422C0F88412F3
:10025000C0F88C22C0F88422DFF804B10C468A462C
:1002600080469146002504F1640600BFC8F884A2C8
:10027000DBF80070C8F884924FF6FF7C0CEA072C7C
:10028000C8F884A2DBF80020C8F88492D7B247EA05
:100290000C0705F16400B1B280B200F085F900F0FE
:1002A0006AF94FF0D840A0F880706D1CB5F5A07FBA
:1002B000DCD3641CF02CD5D34FF4807006F003FE21
:1002C000254981F800A0BDE8F09F1CB5A82004F0E6
:1002D000D9FF4FF4A06005F0DFF800F03EFE1024D7
:1002E0004FF6FF7515E01FA0CDE900401023C8228E
:1002F000E6213C2004F019FBC82005F004F8F623A1
:10030000EF22E6213C20009504F0BEF9C82004F05D
:10031000FAFF04F03FFB0028E5D116A0CDE900402C
:100320001023C822E6213C2004F0FFFA40F2DC5002
:1003300004F0E9FF04F0CCFD4FF4A073F022AE21ED
:100340000A2004F033FC05490020C1F8880200BFF0
:10035000FFF76AFFFCE7000018000020000042429F
:10036000101402404F5637363730204572726F7284
:10037000212100004F563736373020496E697420EE
:100380004F4B00007047FEE7FEE7FEE7FEE77047D1
:1003900070477047704700000CB500205449019029
:1003A00000900A6842F480320A604FF4A0430A6861
:1003B00002F400320092019A521C0192009A12B982
:1003C000019A9A42F3D10A68920334D50120009031
:1003D00047484030026842F0805202604548026857
:1003E00042F44042026042480830026802600268FB
:1003F00042F400420260026842F4A0520260031F0D
:100400003D4A1A600A6842F080720A600A689201E6
:10041000FCD53A4A40F205711160016821F00301F0
:100420000160016841F0020101600168C1F38101CE
:100430000229FAD10CBD00900CBD314810B50168FD
:1004400041F4700101602A48016841F00101016036
:10045000274A00210832116002682A4B1A400260C4
:10046000031D294A1A60026822F480220260204893
:100470000C300160FFF790FF21494FF00060803998
:10048000086010BD70B51A4C083420681F4A10F07F
:100490000C011F4804D05510042903D0082903D0AB
:1004A00002601BE0056019E01149091D0B68C3F3E8
:1004B00080560B6803F03F0316B1B5FBF3F201E081
:1004C000B2FBF3F20B680968C3F388135A43C1F314
:1004D0000141491C4900B2FBF1F1016021680C4A5D
:1004E000C1F30311121D515C0268CA40026070BD65
:1004F000003802400070004008544007003C0240B1
:1005000088ED00E0FFFFF6FE103000240024F40028
:100510000000002001B5BDF80000ADF80000BDF8F6
:1005200000004FF0D841A1F87E0008BD01B5BDF82C
:100530000000ADF80000BDF800004FF0D841A1F870
:10054000800008BD08B54FF0D840B0F88000ADF885
:100550000000BDF8000008BD4FF0D84222F87E0F21
:100560005180704710B5FFF7D5FF052004F09DFEC0
:10057000BDE81040E6E7FE484FF0D8410089A1F8F9
:100580007E0070474FF0D841A1F880007047C0F35B
:100590004511C20AC00200EB4110104480B27047FE
:1005A000401EC0B2FCD27047F0B5F14E0246334651
:1005B000B0880C464FEA112C150A5B89A0F513414F
:1005C00041391AD0A0F5A641103916D0B646B179F6
:1005D0003688A0F5D047B61A761E043F18D0774665
:1005E000A0F5C85EBEF1630E27D0A0F5A04EBEF503
:1005F000A26E5BD0012974D074E01846FFF78AFF21
:100600002846FFF793FFD0B2FFF790FFB0890DE0C7
:100610007546012900D1B2B21846FFF77BFF100AD8
:10062000FFF784FFD0B2FFF781FFA889FFF772FFC1
:100630006046FFF77BFFE0B226E041B31846FFF7C4
:1006400069FF2846FFF772FFD0B2FFF76FFF3888C7
:10065000401EC0F30F20FFF769FF3878401EC0B27C
:10066000FFF764FFB889FFF755FF6046FFF75EFFAD
:10067000E0B2FFF75BFF7888401EC0F30F20FFF762
:1006800055FFB878401EC0B2BDE8F0404EE7B2B2A8
:100690001846FFF73FFF0020FFF748FF0020FFF755
:1006A00045FF100AFFF742FFD0B2D9E71846FFF71F
:1006B00031FF2846FFF73AFF7889401C80B2FFF7E8
:1006C00029FFD0B2FFF732FFB889FFF723FF60465A
:1006D000FFF72CFFB889401C80B2FFF71BFFAAE789
:1006E000FFE7B2B211461846FFF736FFB889214638
:1006F000BDE8F04030E72DE9F0419D4C002635463D
:100700002288824202D962888A4202D80020BDE84B
:10071000F081FFF749FFA08849F2413841F6631C98
:1007200045F2103245F21057404507D0A0F5D041B0
:10073000043903D0904201D0604501D12E2005E05C
:10074000B84202D14FF4385000E02220FFF7E2FE19
:10075000A088A0F51341203903D10120401EC0B26A
:10076000FCD2FFF7EFFEA1886145D0D00120401EEA
:10077000C0B2FCD2FFF7E6FE0146A088C446604541
:1007800003D0904201D0B8420BD10120401EC0B22C
:10079000FCD2FFF7D7FE0546C8B24FF6FF7303EA57
:1007A0000026A088A0F51343253B1DD0A0F58A4361
:1007B000353B19D0A0F58A43313B15D0A0F5354320
:1007C000053B11D0A0F54543053B0DD0604503D056
:1007D000904201D0B84209D1C80AC002B10A40EA29
:1007E000411040EAD52092E7084690E7BDE8F04185
:1007F0000846CCE65E488088A0F51341413913D005
:10080000A0F5D04104390FD0A0F5A64110390BD086
:10081000A0F5C851633907D0A0F5AA41103905D019
:1008200040F27311072097E6292001E04FF424508D
:1008300070E64F488088A0F51341413912D0A0F5E9
:10084000D04104390ED0A0F5A64110390AD0A0F548
:10085000C851633906D0A0F5AA41103904D000214F
:10086000072079E6282001E04FF4205052E6F0B549
:100870003F4C00232146A579898846F6040241F6BB
:100880006316012D01D02DB11DE091421BD0B14264
:1008900002D118E0B14216D1082814D2DFE800F0E6
:1008A0000406080A0C0E101206200CE007200AE0CD
:1008B000042008E0052006E0012004E0002002E01A
:1008C000032000E00220A1F5134C45F2103745F259
:1008D0001055BCF1410C07D0914205D0B94203D06C
:1008E000A94201D0B1427CD1082812D2DFE800F041
:1008F000110406080A0C0E1080230AE0402308E0C9
:10090000C02306E0202304E0602302E0A02300E0EF
:10091000E023A94202D14FF4585000E03620B942FA
:1009200005D0A94203D0B14201D043F0080391425F
:1009300001D143F002031946FFF70EFEA188B14230
:100940000AD098062088628802D5904202D303E03C
:10095000904201D9228060806089A94245D1FFF789
:10096000D9FD0020FFF7E2FD6089401C80B201E064
:1009700034000020FFF7CEFD0020FFF7D7FD60898F
:10098000801C80B2FFF7C6FD2088401EC0F30F20F8
:10099000FFF7CCFD6089C01C80B2FFF7BBFD20785B
:1009A000401EC0B2FFF7C2FDA089FFF7B3FD0020D3
:1009B000FFF7BCFDA089401C80B2FFF7ABFD002013
:1009C000FFF7B4FDA089801C80B2FFF7A3FD60880B
:1009D000401EC0F30F20FFF7A9FDA089C01C80B204
:1009E00000E02AE0FFF796FD21E0FFF793FD0020ED
:1009F000FFF79CFD0020FFF799FD2088401EC0F303
:100A00000F20FFF793FD2078401EC0B2FFF78EFD48
:100A1000A089FFF77FFD0020FFF788FD0020FFF78A
:100A200085FD6088401EC0F30F20FFF77FFDA07892
:100A3000BDE8F040401EC0B278E5082812D2DFE8D9
:100A400000F0040608110A0C0E1030230AE01023EF
:100A500008E0202306E0382304E0282302E01823DE
:100A600000E00823BDE8F040032043F4805173E523
:100A700010B51446FFF798FDFFF77DFD4FF0D84005
:100A8000A0F8804010BD2DE9F04190460D46024689
:100A9000FE4C4FEA112C2346A088160A5B89A0F56C
:100AA0001341413917D0A0F5A641103913D0A0F554
:100AB000AA41103914D02646A0F5C857B179368816
:100AC000B61A761E633F25D0A0F5D047043F3DD02F
:100AD000012951D051E01846FFF71CFD30463CE09B
:100AE0001846FFF717FD3046FFF720FD6089401CD0
:100AF00080B2FFF70FFDD0B2FFF718FDA089FFF716
:100B000009FD6046FFF712FDA089401C80B2FFF787
:100B100001FD2DE001B9B2B21846FFF7FBFC160A41
:100B20003046FFF703FDD0B2FFF700FD3046FFF778
:100B3000FDFCD0B2FFF7FAFCA089FFF7EBFC6046A2
:100B4000FFF7F4FCE8B2FFF7F1FC0EE0012900D159
:100B5000B2B21846FFF7DEFC100AFFF7E7FCD0B28E
:100B6000FFF7E4FCA089FFF7D5FC6046FFF7DEFC49
:100B7000E8B2FFF7DBFC08E0B2B211461846FFF717
:100B8000EBFCA0892946FFF7E7FC4FF0D84021890C
:100B900020F87E1FA0F80280B9E510B50246BE20FD
:100BA000FFF7B8FC0520FFF7C1FC104606F0F9F985
:100BB0009FEDB71B53EC112B06F006FA06F0C4F9B3
:100BC00080B2FFF7B3FC0120FFF7B0FCFF20FFF776
:100BD000ADFC0020FFF7AAFCBDE810400020A5E412
:100BE0002DE9F04FA9492A242B25898845F2105A6E
:100BF0004FF4305B4FF4285E4FF448764FF0F00C22
:100C000049F241394FF4A07345F210374FF4F072B6
:100C100080B19E484FF00108494580F80680038066
:100C2000A0F802C001D0B9423ED12C2606814481F1
:100C3000858157E095484FF00008494580F80680C7
:100C4000A0F800C0438006D0A1F5D04CBCF1040C44
:100C500001D0B9420CD12C2606814481A1F5D044A3
:100C60008581043C01D0B94244D10380428041E0F7
:100C7000514507D1A0F808B0A0F80AE04FF42C5174
:100C800081810EE0A1F5C853633B06D0222101818A
:100C900020214181212181812CE02C21018145816C
:100CA00084810280468025E0A1F5D04CBCF1040C83
:100CB00009D051450BD1A0F808B0A0F80AE04FF4D4
:100CC0002C54848120E02C260681458109E0A1F581
:100CD000C85CBCF1630C11D022240481212444811E
:100CE00020248481A1F5D044043C01D0B94201D133
:100CF00002804380BDE8F04F0020B8E54FF02C0C97
:100D0000A0F808C04481858106804280EAE72DE989
:100D1000FE4F0446104401EB0308DFF87091401EBB
:100D2000A8F1010887B2B9F80400C8F307230293B9
:100D30000B0A0093A3185B1EC3F3072301934B46D2
:100D40000D465B89A0F513411FFA88F64FEA142B74
:100D5000413912D0A0F5A04CBCF5447C0DD0A0F5D3
:100D6000D04CBCF1040C08D099F806A041F6631CE5
:100D7000BAF1010F1ED160451CD14A461846FFF753
:100D8000C9FB5846FFF7D2FBE0B2FFF7CFFB019853
:100D9000FFF7CCFBF8B2FFF7C9FB9089FFF7BAFB6E
:100DA0000098FFF7C3FBE8B2FFF7C0FB0298FFF71C
:100DB000BDFB93E035496045098825D1881A001BA1
:100DC00084B24E461FFA88F71846FFF7A3FB200AA5
:100DD000FFF7ACFBE0B2FFF7A9FB2244521EC2F3BF
:100DE0000F20FFF7A3FBD0B2FFF7A0FBB089FFF7FE
:100DF00091FB0098FFF79AFBE8B2FFF797FB380AE0
:100E0000FFF794FBF8B26AE0A0F5A04C4A46BCF5A7
:100E1000A26C23D0BAF1010F65D03B4620462F4685
:100E2000502201464FF051094FF052084FF0530C39
:100E30001046FFF791FB19464846FFF78DFB3946F0
:100E40004046FFF789FB31466046FFF785FB03B05C
:100E500029462046BDE8F04FFFF7A6BB1846FFF72E
:100E600059FB5846FFF762FB5089401C80B2FFF7E0
:100E700051FBE0B2FFF75AFB5089801C80B2FFF7AC
:100E800049FB0198FFF752FB508905E03400002030
:100E90006666666666660440C01C80B2FFF73AFB71
:100EA000F8B2FFF743FB9089FFF734FB0098FFF798
:100EB0003DFB9089401C80B2FFF72CFBE8B2FFF7A6
:100EC00035FB9089801C80B2FFF724FB0298FFF766
:100ED0002DFB9089C01C80B2FFF71CFBF0B2BDE86F
:100EE000FE4FFFF723BBCA1B521E091B3346491E88
:100EF000284697B28EB293E72DE9F043FF4C814626
:100F00000025208866884643A088A0F5D041043992
:100F100002D1A079012808D000210846FFF744FB40
:100F2000FFF729FB4FF0D84013E00020A0712A27DB
:100F300067814FF02B08A4F80C800146FFF734FBC3
:100F40000120A071A4F80A80A781E9E7A0F88090A9
:100F50006D1CB542FAD3BDE8F0832DE9F04FA1B086
:100F6000002401217A20119404F097FF0121084602
:100F700004F0A7FF01208DF804008DF80640022040
:100F80008DF8050001204FF4004A8DF80700CDF8D8
:100F900000A06946DA4804F043FB4CF2337000903D
:100FA00002208DF804008DF8064003208DF805001E
:100FB00001208DF807006946D24804F031FB4FF656
:100FC0008070009002208DF804008DF80640032008
:100FD0008DF805000120CC4D8DF8070069462846A4
:100FE00004F01EFBA814009002208DF804008DF878
:100FF000064003208DF805000120C44E8DF807003F
:101000006946304604F00CFBA814009002208DF8CD
:1010100004008DF8064003208DF805000120BC4F28
:101020008DF807006946384604F0FAFA0C220021D0
:10103000B44804F07EFB0C220121B24804F079FB95
:101040000C220421AF4804F074FB0C220521AD48AA
:1010500004F06FFB0C220821AA4804F06AFB0C2262
:101060000921A84804F065FB0C220A21A54804F0D8
:1010700060FB0C220E21A34804F05BFB0C220F2125
:10108000A04804F056FB0C220721284604F051FB2F
:101090000C220821284604F04CFB0C22092128468A
:1010A00004F047FB0C220A21284604F042FB0C22E4
:1010B0000B21284604F03DFB0C221146284604F083
:1010C00038FB0C220D21284604F033FB0C220E21A4
:1010D000284604F02EFB0C220F21284604F029FBA1
:1010E0000C221146304604F024FB0C2211463846EF
:1010F00004F01FFB0F20CDE91A043C20CDE91C04AD
:101100001E941F9409202094CDE913040820CDE9F2
:10111000150417940620CDE90204189419941020A0
:10112000CDE9044006940002CDE90A4008940794F2
:101130008000CDE90C4009941AA8CDE90E4013A80F
:10114000109002A804F030FB0121062004F0A5FB5A
:10115000322004F0D8F801210020FFF7FDF93220F9
:1011600004F0D1F80020FFF7FDF9DFF890C14FF04F
:1011700020494FF6FF78ACF8040049F2413545F2BA
:10118000103645F2105441F6631246F60407FF2864
:1011900004D3404502D0B0F5134F73D1D320FFF7ED
:1011A000B9F9FFF7CFF9ACF80400FFF7CBF9ACF8C9
:1011B0000400FFF7C7F908EA0020ACF80400FFF7C5
:1011C000C1F9BCF804100843ACF80400A84274D07C
:1011D000BF20FFF79FF9FFF7B5F9ACF80400FFF760
:1011E000B1F9ACF80400FFF7ADF9ACF80400FFF773
:1011F000A9F908EA0020ACF80400FFF7A3F9BCF84D
:1012000004100843ACF80400B84256D0D420FFF7CD
:1012100081F9FFF797F9ACF80400FFF793F9ACF800
:101220000400FFF78FF908EA0020ACF80400FFF78C
:1012300089F9BCF804100843ACF80400B0423CD073
:101240004FF45A40FFF766F9FFF77CF9ACF8040059
:101250004FF45B40FFF75EF9FFF774F908EA0020EE
:10126000ACF804004FF45C40FFF754F9FFF76AF95B
:10127000BCF804100843ACF80400504503D1ACF8A6
:10128000044023E019E0A04217D0A120FFF742F963
:10129000FFF758F9ACF80400FFF754F908EA00200A
:1012A000ACF80400FFF74EF9BCF804100843A0F5B1
:1012B000AE41ACF8040061392CD080B2A84205D010
:1012C000B04203D0A04201D0904226D1D9F81C11DF
:1012D000484621F00F01C9F81C11D9F81C1121F45E
:1012E0007061C9F81C11D9F81C1141F00301C9F84B
:1012F0001C11D9F81C1141F400712BE034000020BE
:1013000000040240000C02400010024000140240A1
:1013100000180240ACF80420D8E7B84203D0A0F58A
:101320004541053918D1D9F81C11484621F00F0163
:10133000C9F81C11D9F81C1121F47061C9F81C11ED
:10134000D9F81C1141F00A01C9F81C11D9F81C1177
:1013500041F44061C0F81C11BCF80400A8427CD1E3
:10136000CF20FFF7D7F80020FFF7E0F8C120FFF704
:10137000DDF83020FFF7DAF8ED20FFF7CBF8642036
:10138000FFF7D4F80320FFF7D1F81220FFF7CEF8CB
:101390008120FFF7CBF8E820FFF7BCF88520FFF7A6
:1013A000C5F81020FFF7C2F87A20FFF7BFF8CB206E
:1013B000FFF7B0F83920FFF7B9F82C20FFF7B6F89F
:1013C0000020FFF7B3F83420FFF7B0F80220FFF752
:1013D000ADF8F720FFF79EF82020FFF7A7F8EA20E6
:1013E000FFF798F80020FFF7A1F80020FFF79EF81C
:1013F000C020FFF78FF81B20FFF798F8C120FFF7F8
:1014000089F80120FFF792F8C520FFF783F8302014
:10141000FFF78CF83020FFF789F8C720FFF77AF83C
:10142000B720FFF783F83620FFF774F84820FFF75E
:101430007DF83A20FFF76EF85520FFF777F8B120D6
:10144000FFF768F80020FFF771F81A20FFF76EF831
:10145000B620FFF75FF80A2000E092E0FFF766F899
:10146000A220FFF763F8F220FFF754F80020FFF7FF
:101470005DF82620FFF74EF80120FFF757F8E0202F
:10148000FFF748F80F20FFF751F82A20FFF74EF832
:101490002820FFF74BF80820FFF748F80E20FFF749
:1014A00045F80820FFF742F85420FFF73FF8A9203D
:1014B000FFF73CF84320FFF739F80A20FFF736F82A
:1014C0000F20FFF733F80020FFF730F80020FFF778
:1014D0002DF80020FFF72AF80020FFF727F8E12079
:1014E000FFF718F80020FFF721F81520FFF71EF886
:1014F0001720FFF71BF80720FFF718F81120FFF758
:1015000015F80620FFF712F82B20FFF70FF85620EA
:10151000FFF70CF83C20FFF709F80520FFF706F865
:101520001020FFF703F80F20FFF700F83F20FEF729
:10153000FDFF3F20FEF7FAFF0F20FEF7F7FF2B20FD
:10154000FEF7E8FF0020FEF7F1FF0020FEF7EEFFB8
:101550000120FEF7EBFF3F20FEF7E8FF2A20FEF711
:10156000D9FF0020FEF7E2FF0020FEF7DFFF00209A
:10157000FEF7DCFFEF20FEF7D9FF1120FEF7CAFFD0
:10158000A5E0B8427ED11120FEF7C4FF142003F07D
:10159000BAFED020FEF7BEFF0720FEF7C7FF4220AD
:1015A000FEF7C4FF1D20FEF7C1FFD120FEF7B2FFFA
:1015B0000020FEF7BBFF1A20FEF7B8FF0920FEF758
:1015C000B5FFD220FEF7A6FF0120FEF7AFFF2220D5
:1015D000FEF7ACFFC020FEF79DFF1020FEF7A6FF30
:1015E0003B20FEF7A3FF0020FEF7A0FF0220FEF73E
:1015F0009DFF1120FEF79AFFC520FEF78BFF032009
:10160000FEF794FFC820FEF785FF0020FEF78EFF4F
:101610002520FEF78BFF2120FEF788FF0520FEF72F
:1016200085FF0020FEF782FF0A20FEF77FFF65207E
:10163000FEF77CFF2520FEF779FF7720FEF776FF87
:101640005020FEF773FF0F20FEF770FF0020FEF71B
:101650006DFFF820FEF75EFF0120FEF767FFFE201A
:10166000FEF758FF0020FEF761FF0220FEF75EFF45
:101670002020FEF74FFF3620FEF74CFF0820FEF734
:1016800055FF00E029E03A20FEF744FF5520FEF721
:101690004DFF2B20FEF73EFF0020FEF747FF002006
:1016A000FEF744FF0120FEF741FF3F20FEF73EFF1B
:1016B0002A20FEF72FFF0020FEF738FF0020FEF75C
:1016C00035FF0120FEF732FFDF20FEF72FFF7820E5
:1016D00003F019FE292001F0FBBEB0427ED1ED20BF
:1016E000FEF718FF0120FEF721FFFE20FEF71EFF88
:1016F000EE20FEF70FFFDE20FEF718FF2120FEF799
:1017000015FFF120FEF706FF0120FEF70FFFDF2097
:10171000FEF700FF1020FEF709FFC420FEF7FAFED7
:101720008F20FEF703FFC620FEF7F4FE0020FEF731
:10173000FDFEE220FEF7FAFEE220FEF7F7FEE220D1
:10174000FEF7F4FEBF20FEF7E5FEAA20FEF7EEFE50
:10175000B020FEF7DFFE0D20FEF7E8FE0020FEF7CA
:10176000E5FE0D20FEF7E2FE0020FEF7DFFE112071
:10177000FEF7DCFE0020FEF7D9FE1920FEF7D6FEAC
:101780000020FEF7D3FE2120FEF7D0FE0020FEF75A
:10179000CDFE2D20FEF7CAFE0020FEF7C7FE3D203D
:1017A000FEF7C4FE0020FEF7C1FE5D20FEF7BEFE80
:1017B0000020FEF7BBFE5D20FEF7B8FE0020FEF71E
:1017C000B5FEB120FEF7A6FE8020FEF7AFFE00209A
:1017D000FEF7ACFE8B20FEF7A9FE00E0FDE3002043
:1017E000FEF7A4FE9620FEF7A1FE0020FEF79EFE67
:1017F000B220FEF78FFE0020FEF798FE0020FEF7D5
:1018000095FE0220FEF792FE0020FEF78FFE0320D9
:10181000FEF78CFE0020FEF789FEB320FEF77AFE6D
:101820000020FEF783FE0020FEF780FE0020FEF77A
:101830007DFE0020FEF77AFE0020FEF777FE0020F6
:10184000FEF774FE0020FEF771FE0020FEF76EFE2C
:101850000020FEF76BFE0020FEF768FE0020FEF77A
:1018600065FE0020FEF762FE0020FEF75FFE00200E
:10187000FEF75CFE0020FEF759FE0020FEF756FE44
:101880000020FEF753FE0020FEF750FE0020FEF77A
:101890004DFE0020FEF74AFE0020FEF747FE002026
:1018A000FEF744FE0020FEF741FE0020FEF73EFE5C
:1018B000B420FEF72FFE8B20FEF738FE0020FEF747
:1018C00035FE9620FEF732FE0020FEF72FFEA12007
:1018D000FEF72CFE0020FEF729FEB520FEF71AFECB
:1018E0000220FEF723FE0020FEF720FE0320FEF775
:1018F0001DFE0020FEF71AFE0420FEF717FE002052
:10190000FEF714FEB620FEF705FE0020FEF70EFEE1
:101910000020FEF70BFEB720FEF7FCFD0020FEF7CF
:1019200005FE0020FEF702FE3F20FEF7FFFD00202F
:10193000FEF7FCFD5E20FEF7F9FD0020FEF7F6FD48
:101940006420FEF7F3FD0020FEF7F0FD8C20FEF78B
:10195000EDFD0020FEF7EAFDAC20FEF7E7FD0020DC
:10196000FEF7E4FDDC20FEF7E1FD0020FEF7DEFDE2
:101970007020FEF7DBFD0020FEF7D8FD9020FEF77B
:10198000D5FD0020FEF7D2FDEB20FEF7CFFD0020B5
:10199000FEF7CCFDDC20FEF7C9FD0020FEF7C6FDFA
:1019A000B820FEF7B7FD0020FEF7C0FD0020FEF7CF
:1019B000BDFD0020FEF7BAFD0020FEF7B7FD0020B8
:1019C000FEF7B4FD0020FEF7B1FD0020FEF7AEFDEE
:1019D0000020FEF7ABFDBA20FEF79CFD2420FEF7A9
:1019E000A5FD0020FEF7A2FD0020FEF79FFD0020D0
:1019F000FEF79CFDC120FEF78DFD2020FEF796FD31
:101A00000020FEF793FD5420FEF790FD0020FEF726
:101A10008DFDFF20FEF78AFD0020FEF787FDC22026
:101A2000FEF778FD0A20FEF781FD0020FEF77EFD1F
:101A30000420FEF77BFD0020FEF778FDC320FEF7B3
:101A400069FD3C20FEF772FD0020FEF76FFD3A2095
:101A5000FEF76CFD0020FEF769FD3920FEF766FDFC
:101A60000020FEF763FD3720FEF760FD0020FEF743
:101A70005DFD3C20FEF75AFD0020FEF757FD3620A5
:101A8000FEF754FD0020FEF751FD3220FEF74EFD1B
:101A90000020FEF74BFD2F20FEF748FD0020FEF74B
:101AA00045FD2C20FEF742FD0020FEF73FFD2920DA
:101AB000FEF73CFD0020FEF739FD2620FEF736FD3F
:101AC0000020FEF733FD2420FEF730FD0020FEF756
:101AD0002DFD2420FEF72AFD0020FEF727FD232000
:101AE000FEF724FD0020FEF721FD3C20FEF71EFD41
:101AF0000020FEF71BFD3620FEF718FD0020FEF744
:101B000015FD3220FEF712FD0020FEF70FFD2F20FD
:101B1000FEF70CFD0020FEF709FD2C20FEF706FD68
:101B20000020FEF703FD2920FEF700FD0020FEF750
:101B3000FDFC2620FEF7FAFC0020FEF7F7FC24202F
:101B4000FEF7F4FC0020FEF7F1FC2420FEF7EEFC8B
:101B50000020FEF7EBFC2320FEF7E8FC0020FEF758
:101B6000E5FCC420FEF7D6FC6220FEF7DFFC002077
:101B7000FEF7DCFC0520FEF7D9FC0020FEF7D6FCC2
:101B80008420FEF7D3FC0020FEF7D0FCF020FEF707
:101B9000CDFC0020FEF7CAFC1820FEF7C7FC002091
:101BA000FEF7C4FCA420FEF7C1FC0020FEF7BEFC3B
:101BB0001820FEF7BBFC0020FEF7B8FC5020FEF713
:101BC000B5FC0020FEF7B2FC0C20FEF7AFFC0020B5
:101BD000FEF7ACFC1720FEF7A9FC0020FEF7A6FCE0
:101BE0009520FEF7A3FC0020FEF7A0FCF320FEF7F3
:101BF0009DFC0020FEF79AFCE620FEF797FC0020F3
:101C0000FEF794FCC520FEF785FC3220FEF78EFC23
:101C10000020FEF78BFC4420FEF788FC0020FEF736
:101C200085FC6520FEF782FC0020FEF77FFC762015
:101C3000FEF77CFC0020FEF779FC8820FEF776FC9E
:101C40000020FEF773FCC620FEF764FC2020FEF7A0
:101C50006DFC0020FEF76AFC1720FEF767FC0020F1
:101C6000FEF764FC0120FEF761FC0020FEF75EFC3D
:101C7000C720FEF74FFC0020FEF758FC0020FEF7BF
:101C800055FC0020FEF752FC0020FEF74FFCC82058
:101C9000FEF740FC0020FEF749FC0020FEF746FC62
:101CA0000020FEF743FC0020FEF740FCC920FEF7B1
:101CB00031FC0020FEF73AFC0020FEF737FC002044
:101CC000FEF734FC0020FEF731FC0020FEF72EFC6E
:101CD0000020FEF72BFC0020FEF728FC0020FEF77A
:101CE00025FC0020FEF722FC0020FEF71FFC002050
:101CF000FEF71CFC0020FEF719FC0020FEF716FC86
:101D00000020FEF713FC0020FEF710FC0020FEF779
:101D10000DFCE020FEF7FEFB1620FEF707FC00207E
:101D2000FEF704FC1C20FEF701FC0020FEF7FEFB82
:101D30002120FEF7FBFB0020FEF7F8FB3620FEF724
:101D4000F5FB0020FEF7F2FB4620FEF7EFFB00203C
:101D5000FEF7ECFB5220FEF7E9FB0020FEF7E6FB66
:101D60006420FEF7E3FB0020FEF7E0FB7A20FEF79D
:101D7000DDFB0020FEF7DAFB8B20FEF7D7FB00200F
:101D8000FEF7D4FB9920FEF7D1FB0020FEF7CEFB37
:101D9000A820FEF7CBFB0020FEF7C8FBB920FEF71A
:101DA000C5FB0020FEF7C2FBC420FEF7BFFB0020EE
:101DB000FEF7BCFBCA20FEF7B9FB0020FEF7B6FB1E
:101DC000D220FEF7B3FB0020FEF7B0FBD920FEF7D0
:101DD000ADFB0020FEF7AAFBE020FEF7A7FB0020EA
:101DE000FEF7A4FBF320FEF7A1FB0020FEF79EFB0D
:101DF000E120FEF78FFB1620FEF798FB0020FEF790
:101E000095FB1C20FEF792FB0020FEF78FFB2220A3
:101E1000FEF78CFB0020FEF789FB3620FEF786FBE1
:101E20000020FEF783FB4520FEF780FB0020FEF735
:101E30007DFB5220FEF77AFB0020FEF777FB642043
:101E4000FEF774FB0020FEF771FB7A20FEF76EFBB5
:101E50000020FEF76BFB8B20FEF768FB0020FEF7EF
:101E600065FB9920FEF762FB0020FEF75FFBA820D0
:101E7000FEF75CFB0020FEF759FBB920FEF756FB8E
:101E80000020FEF753FBC420FEF750FB0020FEF7B6
:101E90004DFBCA20FEF74AFB0020FEF747FBD2208D
:101EA000FEF744FB0020FEF741FBD820FEF73EFB87
:101EB0000020FEF73BFBE020FEF738FB0020FEF79A
:101EC00035FBF320FEF732FB0020FEF72FFBE2206C
:101ED000FEF720FB0520FEF729FB0020FEF726FB7E
:101EE0000B20FEF723FB0020FEF720FB1B20FEF754
:101EF0001DFB0020FEF71AFB3420FEF717FB002025
:101F0000FEF714FB4420FEF711FB0020FEF70EFB4A
:101F10004F20FEF70BFB0020FEF708FB6120FEF7C9
:101F200005FB0020FEF702FB7920FEF7FFFA0020F8
:101F3000FEF7FCFA8820FEF7F9FA0020FEF7F6FA21
:101F40009720FEF7F3FA0020FEF7F0FAA620FEF73E
:101F5000EDFA0020FEF7EAFAB720FEF7E7FA0020D4
:101F6000FEF7E4FAC220FEF7E1FA0020FEF7DEFAFF
:101F7000C720FEF7DBFA0020FEF7D8FAD120FEF7E3
:101F8000D5FA0020FEF7D2FAD620FEF7CFFA0020CD
:101F9000FEF7CCFADD20FEF7C9FA0020FEF7C6FAFC
:101FA000F320FEF7C3FA0020FEF7C0FAE320FEF7A5
:101FB000B1FA0520FEF7BAFA0020FEF7B7FA0A20B8
:101FC000FEF7B4FA0020FEF7B1FA1C20FEF7AEFAD5
:101FD0000020FEF7ABFA332000E0FAE2FEF7A6FAA3
:101FE0000020FEF7A3FA4420FEF7A0FA0020FEF737
:101FF0009DFA5020FEF79AFA0020FEF797FA622029
:10200000FEF794FA0020FEF791FA7820FEF78EFA98
:102010000020FEF78BFA8820FEF788FA0020FEF7F2
:1020200085FA9720FEF782FA0020FEF77FFAA620B5
:10203000FEF77CFA0020FEF779FAB720FEF776FA71
:102040000020FEF773FAC220FEF770FA0020FEF7B8
:102050006DFAC720FEF76AFA0020FEF767FAD12072
:10206000FEF764FA0020FEF761FAD520FEF75EFA6B
:102070000020FEF75BFADD20FEF758FA0020FEF79D
:1020800055FAF320FEF752FA0020FEF74FFAE4204B
:10209000FEF740FA0120FEF749FA0020FEF746FA63
:1020A0000120FEF743FA0020FEF740FA0220FEF777
:1020B0003DFA0020FEF73AFA2A20FEF737FA002010
:1020C000FEF734FA3C20FEF731FA0020FEF72EFA34
:1020D0004B20FEF72BFA0020FEF728FA5D20FEF7D2
:1020E00025FA0020FEF722FA7420FEF71FFA0020DE
:1020F000FEF71CFA8420FEF719FA0020FEF716FA04
:102100009320FEF713FA0020FEF710FAA220FEF744
:102110000DFA0020FEF70AFAB320FEF707FA0020B6
:10212000FEF704FABE20FEF701FA0020FEF7FEF9E2
:10213000C420FEF7FBF90020FEF7F8F9CD20FEF7EA
:10214000F5F90020FEF7F2F9D320FEF7EFF90020B1
:10215000FEF7ECF9DD20FEF7E9F90020FEF7E6F9DD
:10216000F320FEF7E3F90020FEF7E0F9E520FEF7A3
:10217000D1F90020FEF7DAF90020FEF7D7F90020A8
:10218000FEF7D4F90020FEF7D1F90220FEF7CEF9D0
:102190000020FEF7CBF92920FEF7C8F90020FEF752
:1021A000C5F93C20FEF7C2F90020FEF7BFF94B202D
:1021B000FEF7BCF90020FEF7B9F95D20FEF7B6F98D
:1021C0000020FEF7B3F97420FEF7B0F90020FEF707
:1021D000ADF98420FEF7AAF90020FEF7A7F99320B5
:1021E000FEF7A4F90020FEF7A1F9A220FEF79EF960
:1021F0000020FEF79BF9B320FEF798F90020FEF7C8
:1022000095F9BE20FEF792F90020FEF78FF9C42061
:10221000FEF78CF90020FEF789F9CD20FEF786F94C
:102220000020FEF783F9D320FEF780F90020FEF7A7
:102230007DF9DC20FEF77AF90020FEF777F9F3202C
:10224000FEF774F90020FEF771F9E620FEF762F957
:102250001120FEF76BF90020FEF768F93420FEF735
:1022600065F90020FEF762F95620FEF75FF90020BD
:10227000FEF75CF97620FEF759F90020FEF756F9D3
:102280007720FEF753F90020FEF750F96620FEF79D
:102290004DF90020FEF74AF98820FEF747F90020A3
:1022A000FEF744F99920FEF741F90020FEF73EF9C8
:1022B000BB20FEF73BF90020FEF738F99920FEF726
:1022C00035F90020FEF732F96620FEF72FF90020DD
:1022D000FEF72CF95520FEF729F90020FEF726F924
:1022E0005520FEF723F90020FEF720F94520FEF7E0
:1022F0001DF90020FEF71AF94320FEF717F9002018
:10230000FEF714F94420FEF711F90020FEF70EF94C
:10231000E720FEF7FFF83220FEF708F90020FEF76D
:1023200005F95520FEF702F90020FEF7FFF87620A8
:10233000FEF7FCF80020FEF7F9F86620FEF7F6F845
:102340000020FEF7F3F86720FEF7F0F80020FEF714
:10235000EDF86720FEF7EAF80020FEF7E7F887209F
:10236000FEF7E4F80020FEF7E1F89920FEF7DEF82A
:102370000020FEF7DBF8BB20FEF7D8F80020FEF7C0
:10238000D5F89920FEF7D2F80020FEF7CFF8772095
:10239000FEF7CCF80020FEF7C9F84420FEF7C6F897
:1023A0000020FEF7C3F85620FEF7C0F80020FEF725
:1023B000BDF82320FEF7BAF80020FEF7B7F8332067
:1023C000FEF7B4F80020FEF7B1F84520FEF7AEF8AE
:1023D0000020FEF7ABF8E820FEF79CF80020FEF79F
:1023E000A5F80020FEF7A2F89920FEF79FF800203C
:1023F000FEF79CF88720FEF799F80020FEF796F884
:102400008820FEF793F80020FEF790F87720FEF77B
:102410008DF80020FEF78AF86620FEF787F8002086
:10242000FEF784F88820FEF781F80020FEF77EF89A
:10243000AA20FEF77BF80020FEF778F8BB20FEF715
:1024400075F80020FEF772F89920FEF76FF800206B
:10245000FEF76CF86620FEF769F80020FEF766F8D4
:102460005520FEF763F80020FEF760F85520FEF7D0
:102470005DF80020FEF75AF84420FEF757F80020D8
:10248000FEF754F84420FEF751F80020FEF74EF80E
:102490005520FEF74BF80020FEF748F8E920FEF73C
:1024A00039F8AA20FEF742F80020FEF73FF8002096
:1024B000FEF73CF80020FEF739F80020FEF72AF876
:1024C000AA20FEF733F8CF20FEF724F80020FEF70D
:1024D0002DF80020FEF72AF80020FEF727F800204C
:1024E000FEF724F80020FEF721F80020FEF71EF882
:1024F0000020FEF71BF80020FEF718F80020FEF77A
:1025000015F80020FEF712F80020FEF70FF8002063
:10251000FEF70CF80020FEF709F80020FEF706F899
:102520000020FEF703F80020FEF700F80020FDF77A
:10253000FDFFF020FDF7EEFF0020FDF7F7FF502034
:10254000FDF7F4FF0020FDF7F1FF0020FDF7EEFF9F
:102550000020FDF7EBFFF320FDF7DCFF0020FDF787
:10256000E5FFF920FDF7D6FF0620FDF7DFFF10207D
:10257000FDF7DCFF2920FDF7D9FF0020FDF7D6FF8E
:102580003A20FDF7C7FF5520FDF7D0FF1120FDF7DA
:10259000C1FF642002F0B7FE2920FDF7BBFF352004
:1025A000FDF7B8FF0020FDF7C1FF5120FDF7B2FF96
:1025B000FF20FDF7BBFF5320FDF7ACFF2C20FDF7FC
:1025C000B5FF5520FDF7A6FF8220FDF7AFFF2C20B9
:1025D000FDE3A0427ED14FF4704355211846FDF72C
:1025E000BBFF4FF20104AA212046FDF7B5FF651C91
:1025F00052212846FDF7B0FFA61C08213046FDF702
:10260000ABFFE71C01213846FDF7A6FF0D214FF473
:102610003040FDF7A1FF0D214BF20100FDF79CFFBB
:102620000D214BF20200FDF797FF4FF4364C342199
:102630006046FDF791FF34214BF20160FDF78CFFFE
:1026400034214BF20260FDF787FF4FF431490D2131
:102650004846FDF781FF4BF2011A0D215046FDF768
:102660007BFF0D214BF20210FDF776FF4FF4374B45
:1026700034215846FDF770FF34214BF20170FDF70D
:102680006BFF34214BF20270FDF766FF00214FF41F
:102690003240FDF761FF00214BF20120FDF75CFFA6
:1026A00000214BF20220FDF757FF24214FF4384060
:1026B000FDF752FF24214BF60100FDF74DFF2421C9
:1026C0004BF60200FDF748FF01214FF43F40FDF7B4
:1026D00043FF00E0FEE30F214FF43340FDF73CFFE2
:1026E0000F214BF20130FDF737FF0F214BF2023083
:1026F000FDF732FF34214FF43940FDF72DFF34212F
:102700004BF60110FDF728FF34214BF60210FDF7C0
:1027100023FF08214FF43540FDF71EFF08214BF23F
:102720000150FDF719FF08214BF20250FDF714FF8D
:1027300003214FF44240FDF70FFF24214FF43A40AC
:10274000FDF70AFF24214BF60120FDF705FF2421A8
:102750004BF60220FDF700FF00214FF43C40FDF74F
:10276000FBFE78214BF60140FDF7F6FE00214BF60B
:102770000240FDF7F1FE00214FF43D40FDF7ECFE75
:1027800078214BF60150FDF7E7FE00214BF6025091
:10279000FDF7E2FE00214FF43E40FDF7DDFE64212F
:1027A0004BF60160FDF7D8FE00214FF45140FDF7D4
:1027B000D3FE33214DF20110FDF7CEFE00214DF284
:1027C0000210FDF7C9FE34214DF20310FDF7C4FEDF
:1027D00000214DF20410FDF7BFFE3A214DF2051025
:1027E000FDF7BAFE00214DF20610FDF7B5FE4A21B5
:1027F0004DF20710FDF7B0FE00214DF20810FDF775
:10280000ABFE5C214DF20910FDF7A6FE00214DF252
:102810000A10FDF7A1FE81214DF20B10FDF79CFE81
:1028200000214DF20C10FDF797FEA6214DF20D1080
:10283000FDF792FE00214DF20E10FDF78DFEE52111
:102840004DF20F10FDF788FE01214DF21010FDF73B
:1028500083FE13214DF21110FDF77EFE01214DF292
:102860001210FDF779FE54214DF21310FDF774FE9E
:1028700001214DF21410FDF76FFE82214DF215106B
:10288000FDF76AFE01214DF21610FDF765FECA2123
:102890004DF21710FDF760FE02214DF21810FDF702
:1028A0005BFE00214DF21910FDF756FE02214DF29C
:1028B0001A10FDF751FE01214DF21B10FDF74CFEE1
:1028C00002214DF21C10FDF747FE34214DF21D1080
:1028D000FDF742FE02214DF21E10FDF73DFE67217D
:1028E0004DF21F10FDF738FE02214DF22010FDF7CA
:1028F00033FE84214DF22110FDF72EFE02214DF210
:102900002210FDF729FEA4214DF22310FDF724FE2D
:1029100002214DF22410FDF71FFEB7214DF22510C4
:10292000FDF71AFE02214DF22610FDF715FECF210C
:102930004DF22710FDF710FE02214DF22810FDF791
:102940000BFEDE214DF22910FDF706FE02214DF2AD
:102950002A10FDF701FEF2214DF22B10FDF7FCFDD0
:1029600002214DF22C10FDF7F7FDFE214DF22D1046
:10297000FDF7F2FD03214DF22E10FDF7EDFD1021C4
:102980004DF22F10FDF7E8FD03214DF23010FDF759
:10299000E3FD33214DF23110FDF7DEFD03214DF251
:1029A0003210FDF7D9FD6D214DF23310FDF7D4FD46
:1029B00000214FF45240FDF7CFFD33214DF20120AD
:1029C000FDF7CAFD00214DF20220FDF7C5FD3421BF
:1029D0004DF20320FDF7C0FD00214DF20420FDF76C
:1029E000BBFD3A214DF20520FDF7B6FD00214DF269
:1029F0000620FDF7B1FD4A214DF20720FDF7ACFDA1
:102A000000214DF20820FDF7A7FD5C214DF20920C1
:102A1000FDF7A2FD00214DF20A20FDF79DFD812169
:102A20004DF20B20FDF798FD00214DF20C20FDF733
:102A300093FDA6214DF20D20FDF78EFD00214DF2F4
:102A40000E20FDF789FDE5214DF20F20FDF784FDF5
:102A500001214DF21020FDF77FFD13214DF21120D1
:102A6000FDF77AFD01214DF21220FDF775FD54218D
:102A70004DF21320FDF770FD01214DF21420FDF7FA
:102A80006BFD82214DF21520FDF766FD01214DF20F
:102A90001620FDF761FDCA214DF21720FDF75CFD00
:102AA00002214DF21820FDF757FD00214DF21920AB
:102AB000FDF752FD02214DF21A20FDF74DFD0121D7
:102AC0004DF21B20FDF748FD02214DF21C20FDF7C1
:102AD00043FD34214DF21D20FDF73EFD02214DF254
:102AE0001E20FDF739FD67214DF21F20FDF734FD53
:102AF00002214DF22020FDF72FFD84214DF22120EF
:102B0000FDF72AFD02214DF22220FDF725FDA4212B
:102B10004DF22320FDF720FD02214DF22420FDF788
:102B20001BFDB7214DF22520FDF716FD02214DF2C8
:102B30002620FDF711FDCF214DF22720FDF70CFDDA
:102B400002214DF22820FDF707FDDE214DF229205C
:102B5000FDF702FD02214DF22A20FDF7FDFCF221D6
:102B60004DF22B20FDF7F8FC02214DF22C20FDF751
:102B7000F3FCFE214DF22D20FDF7EEFC03214DF27A
:102B80002E20FDF7E9FC10214DF22F20FDF7E4FC8B
:102B900003214DF23020FDF7DFFC33214DF23120CF
:102BA000FDF7DAFC03214DF23220FDF7D5FC6D2153
:102BB0004DF23320FDF7D0FC00214FF45340FDF7D8
:102BC000CBFC33214DF20130FDF7C6FC00214DF264
:102BD0000230FDF7C1FC34214DF20330FDF7BCFC9F
:102BE00000214DF20430FDF7B7FC3A214DF20530DB
:102BF000FDF7B2FC00214DF20630FDF7ADFC4A2195
:102C00004DF20730FDF7A8FC00214DF20830FDF72A
:102C1000A3FC5C214DF20930FDF79EFC00214DF232
:102C20000A30FDF799FC81214DF20B30FDF794FC41
:102C300000214DF20C30FDF78FFCA6214DF20D3036
:102C4000FDF78AFC00214DF20E30FDF785FCE521F1
:102C50004DF20F30FDF780FC01214DF21030FDF7F1
:102C60007BFC13214DF21130FDF776FC01214DF272
:102C70001230FDF771FC54214DF21330FDF76CFC5E
:102C800001214DF21430FDF767FC82214DF2153021
:102C9000FDF762FC01214DF21630FDF75DFCCA2103
:102CA0004DF21730FDF758FC02214DF21830FDF7B8
:102CB00053FC00214DF21930FDF74EFC02214DF27C
:102CC0001A30FDF749FC01214DF21B30FDF744FCA1
:102CD00002214DF21C30FDF73FFC34214DF21D3036
:102CE000FDF73AFC02214DF21E30FDF735FC67215D
:102CF0004DF21F30FDF730FC02214DF22030FDF780
:102D00002BFC84214DF22130FDF726FC02214DF2EF
:102D10002230FDF721FCA4214DF22330FDF71CFCED
:102D200002214DF22430FDF717FCB7214DF225307A
:102D3000FDF712FC02214DF22630FDF70DFCCF21EC
:102D40004DF22730FDF708FC02214DF22830FDF747
:102D500003FCDE214DF22930FDF7FEFB02214DF28E
:102D60002A30FDF7F9FBF2214DF22B30FDF7F4FB91
:102D700002214DF22C30FDF7EFFBFE214DF22D30FC
:102D8000FDF7EAFB03214DF22E30FDF7E5FB1021A4
:102D90004DF22F30FDF7E0FB03214DF23030FDF70F
:102DA000DBFB33214DF23130FDF7D6FB03214DF231
:102DB0003230FDF7D1FB6D214DF23330FDF7CCFB06
:102DC00000214FF45440FDF7C7FB332100E07FE3BF
:102DD0004DF20140FDF7C0FB00214DF20240FDF72E
:102DE000BBFB34214DF20340FDF7B6FB00214DF251
:102DF0000440FDF7B1FB3A214DF20540FDF7ACFB75
:102E000000214DF20640FDF7A7FB4A214DF2074095
:102E1000FDF7A2FB00214DF20840FDF79DFB5C2170
:102E20004DF20940FDF798FB00214DF20A40FDF7F5
:102E300093FB81214DF20B40FDF78EFB00214DF2FB
:102E40000C40FDF789FBA6214DF20D40FDF784FBF8
:102E500000214DF20E40FDF77FFBE5214DF20F40C2
:102E6000FDF77AFB01214DF21040FDF775FB1321B0
:102E70004DF21140FDF770FB01214DF21240FDF7BC
:102E80006BFB54214DF21340FDF766FB01214DF21F
:102E90001440FDF761FB82214DF21540FDF75CFB0C
:102EA00001214DF21640FDF757FBCA214DF21740A4
:102EB000FDF752FB02214DF21840FDF74DFB0021BA
:102EC0004DF21940FDF748FB02214DF21A40FDF783
:102ED00043FB00E0FFE201214DF21B40FDF73CFB0C
:102EE00002214DF21C40FDF737FB34214DF21D400D
:102EF000FDF732FB02214DF21E40FDF72DFB67214D
:102F00004DF21F40FDF728FB02214DF22040FDF756
:102F100023FB84214DF22140FDF71EFB02214DF2DF
:102F20002240FDF719FBA4214DF22340FDF714FBCD
:102F300002214DF22440FDF70FFBB7214DF2254051
:102F4000FDF70AFB02214DF22640FDF705FBCF21DC
:102F50004DF22740FDF700FB02214DF22840FDF71E
:102F6000FBFADE214DF22940FDF7F6FA02214DF27F
:102F70002A40FDF7F1FAF2214DF22B40FDF7ECFA71
:102F800002214DF22C40FDF7E7FAFE214DF22D40D3
:102F9000FDF7E2FA03214DF22E40FDF7DDFA102194
:102FA0004DF22F40FDF7D8FA03214DF23040FDF7E6
:102FB000D3FA33214DF23140FDF7CEFA03214DF221
:102FC0003240FDF7C9FA6D214DF23340FDF7C4FAE6
:102FD00000214FF45540FDF7BFFA33214DF2015067
:102FE000FDF7BAFA00214DF20250FDF7B5FA34218F
:102FF0004DF20350FDF7B0FA00214DF20450FDF7F9
:10300000ABFA3A214DF20550FDF7A6FA00214DF238
:103010000650FDF7A1FA4A214DF20750FDF79CFA40
:1030200000214DF20850FDF797FA5C214DF209504E
:10303000FDF792FA00214DF20A50FDF78DFA812139
:103040004DF20B50FDF788FA00214DF20C50FDF7C0
:1030500083FAA6214DF20D50FDF77EFA00214DF2C4
:103060000E50FDF779FAE5214DF20F50FDF774FA95
:1030700001214DF21050FDF76FFA13214DF211505E
:10308000FDF76AFA01214DF21250FDF765FA54215D
:103090004DF21350FDF760FA01214DF21450FDF787
:1030A0005BFA82214DF21550FDF756FA01214DF2DF
:1030B0001650FDF751FACA214DF21750FDF74CFAA0
:1030C00002214DF21850FDF747FA00214DF2195038
:1030D000FDF742FA02214DF21A50FDF73DFA0121A7
:1030E0004DF21B50FDF738FA02214DF21C50FDF74E
:1030F00033FA34214DF21D50FDF72EFA02214DF224
:103100001E50FDF729FA67214DF21F50FDF724FAF2
:1031100002214DF22050FDF71FFA84214DF221507B
:10312000FDF71AFA02214DF22250FDF715FAA421FB
:103130004DF22350FDF710FA02214DF22450FDF715
:103140000BFAB7214DF22550FDF706FA02214DF298
:103150002650FDF701FACF214DF22750FDF7FCF97B
:1031600002214DF22850FDF7F7F9DE214DF22950EA
:10317000FDF7F2F902214DF22A50FDF7EDF9F221A7
:103180004DF22B50FDF7E8F902214DF22C50FDF7DE
:10319000E3F9FE214DF22D50FDF7DEF903214DF24A
:1031A0002E50FDF7D9F910214DF22F50FDF7D4F92B
:1031B00003214DF23050FDF7CFF933214DF231505C
:1031C000FDF7CAF903214DF23250FDF7C5F96D2123
:1031D0004DF23350FDF7C0F900214FF45640FDF792
:1031E000BBF933214DF20160FDF7B6F900214DF234
:1031F0000260FDF7B1F934214DF20360FDF7ACF93F
:1032000000214DF20460FDF7A7F93A214DF2056067
:10321000FDF7A2F900214DF20660FDF79DF94A2164
:103220004DF20760FDF798F900214DF20860FDF7B7
:1032300093F95C214DF20960FDF78EF900214DF202
:103240000A60FDF789F981214DF20B60FDF784F9E1
:1032500000214DF20C60FDF77FF9A6214DF20D60C3
:10326000FDF77AF900214DF20E60FDF775F9E521C1
:103270004DF20F60FDF770F901214DF21060FDF77E
:103280006BF913214DF21160FDF766F901214DF242
:103290001260FDF761F954214DF21360FDF75CF9FE
:1032A00001214DF21460FDF757F982214DF21560AE
:1032B000FDF752F901214DF21660FDF74DF9CA21D3
:1032C0004DF21760FDF748F902214DF21860FDF745
:1032D00043F900214DF21960FDF73EF902214DF24C
:1032E0001A60FDF739F901214DF21B60FDF734F941
:1032F00002214DF21C60FDF72FF934214DF21D60C3
:10330000FDF72AF902214DF21E60FDF725F967212C
:103310004DF21F60FDF720F902214DF22060FDF70C
:103320001BF984214DF22160FDF716F902214DF2BF
:103330002260FDF711F9A4214DF22360FDF70CF98D
:1033400002214DF22460FDF707F9B7214DF2256007
:10335000FDF702F902214DF22660FDF7FDF8CF21BD
:103360004DF22760FDF7F8F802214DF22860FDF7D5
:10337000F3F8DE214DF22960FDF7EEF802214DF25F
:103380002A60FDF7E9F8F2214DF22B60FDF7E4F831
:1033900002214DF22C60FDF7DFF8FE214DF22D6089
:1033A000FDF7DAF803214DF22E60FDF7D5F8102174
:1033B0004DF22F60FDF7D0F803214DF23060FDF79C
:1033C000CBF833214DF23160FDF7C6F803214DF201
:1033D0003260FDF7C1F86D214DF23360FDF7BCF8A6
:1033E00055211846FDF7B8F8AA212046FDF7B4F894
:1033F00052212846FDF7B0F808213046FDF7ACF819
:1034000000213846FDF7A8F8CC214846FDF7A4F87E
:1034100000215046FDF7A0F805216046FDF79CF815
:1034200070215846FDF798F870214BF20170FDF7B6
:1034300093F801214FF43840FDF78EF803214BF645
:103440000100FDF789F803214BF60200FDF784F82F
:1034500003214BF60300FDF77FF802214FF43C40B7
:10346000FDF77AF800214BF60140FDF775F80021D1
:103470004BF60240FDF770F8D0214FF44940FDF7BC
:103480006BF802214CF60110FDF766F850214CF65E
:103490000210FDF761F850214CF60310FDF75CF8BF
:1034A00050214CF60410FDF757F800214FF454500A
:1034B000FDF752F855214FF46850FDF74DF84FF4E1
:1034C0008850FDF727F8782001F0EFFE4FF42450E4
:1034D000FDF720F8FEE0A0F513414FF480744FF49F
:1034E000E06740F2022A40F23F1B4FF4274625399D
:1034F0007ED0FD1DA0F5134128397AD0A0F51341E7
:103500004FF488794FF41C56203973D0A0F513413D
:10351000313970D0A0F5A84108396DD0A0F5A85177
:103520004FF44079053968D0A0F53541053965D0AB
:10353000A0F5454105397CD0A0F58A41313979D0D3
:10354000A0F58A41353976D09042C3D1E220FCF70C
:10355000E1FF1D20FCF7EAFF0220FCF7E7FF042053
:10356000FCF7E4FF642001F0A0FEE020FCF7D2FFAE
:103570000120FCF7DBFF0A2001F0C5FEE020FCF78C
:10358000C9FF0320FCF7D2FF0C2001F0BCFE012094
:10359000FCF7C0FF0A2001F0B6FEE620FCF7BAFFF8
:1035A0002F20FCF7C3FFFF20FCF7C0FFFF20FCF734
:1035B000BDFFB020FCF7AEFF2020FCF7B7FF0020D6
:1035C000FCF7B4FF0320FCF7B1FF40F21F30FCF71B
:1035D000ADFF0120FCF7AAFF40F2DF10FCF7A6FFC9
:1035E0000020FCF7A3FFB420FCF794FF042006E0C2
:1035F0007DE047E1FEE1A4E278E3FDE3FDE3FCF7D3
:1036000095FF40F21F40FCF791FF0020FCF78EFF72
:103610002E20FCF78BFF0020FCF788FF0020FCF732
:1036200085FF0020FCF782FF0020FCF77FFFB6201B
:1036300002E0F9E3F9E3F9E3FCF76CFF0220FCF7A1
:1036400075FF4FF40370FCF771FF0020FCF76EFF6D
:103650001720FCF76BFF1520FCF768FF0020FCF734
:1036600065FF0020FCF762FFF020FCF753FF03200A
:10367000FCF75CFF2920FCF74DFFD020FCF74AFF48
:103680000020FCF753FFBE20FCF744FF0520FCF7A9
:103690004DFFFE20FCF74AFF0120FCF747FF00200A
:1036A000FCF744FF0020FCF741FF0020FCF73EFF41
:1036B000B820FCF72FFF0320FCF738FF0120FCF7B0
:1036C00035FFBA20FCF726FF0120FCF72FFF64200E
:1036D000FDF763FA0020FDF783FAFF490120C1F8E6
:1036E000BC024046FDF708FC21B0BDE8F08F47F66C
:1036F000F001E520FCF730FF21460120FCF72CFF0C
:1037000039460220FCF728FF41F230010320FCF784
:1037100023FF00210420FCF71FFF51460820FCF77F
:103720001BFF00210920FCF717FF00210A20FCF7EE
:1037300013FF00210C20FCF70FFF00210D20FCF7E8
:103740000BFF00210F20FCF707FF00211020FCF7E2
:1037500003FF07211120FCF7FFFE00211220FCF7D8
:10376000FBFE00211320FCF7F7FE00210720FCF7E9
:10377000F3FE41F290611020FCF7EEFE40F22721AB
:103780001120FCF7E9FE9D211220FCF7E5FE4FF425
:10379000C8511320FCF7E0FE25212920FCF7DCFEB0
:1037A0000D212B20FCF7D8FE07213020FCF7D4FE9A
:1037B00040F203313120FCF7CFFE03213220FCF729
:1037C000CBFE40F206213520FCF7C6FE082136204C
:1037D000FCF7C2FE40F206413720FCF7BDFE4FF475
:1037E00041713820FCF7B8FE07213920FCF7B4FE00
:1037F00040F202613C20FCF7AFFE08213D20FCF7BF
:10380000ABFE00215020FCF7A7FEEF215120FCF772
:10381000A3FE00215220FCF79FFE59465320FCF7DF
:103820009BFE31466020FCF797FE01216120FCF7EA
:1038300093FE00216A20FCF78FFE00218020FCF718
:103840008BFE00218120FCF787FE00218220FCF7FF
:1038500083FE00218320FCF77FFE00218420FCF7FB
:103860007BFE00218520FCF777FE10219020FCF7DD
:1038700073FE4FF4C0619220FCF76EFE40F23311EC
:103880000720FDE341F28F01EC20FCF765FE41F2D9
:103890003421EF20FCF760FE21460120FCF75CFE9E
:1038A00039460220FCF758FE41F230010320FCF7B4
:1038B00053FE00210420FCF74FFE51460820FCF780
:1038C0004BFE00210920FCF747FE00210A20FCF7EF
:1038D00043FE01210C20FCF73FFE00210D20FCF7E8
:1038E0003BFE00210F20FCF737FE00211020FCF7E3
:1038F00033FE07211120FCF72FFE00211220FCF7D8
:103900002BFE00211320FCF727FE01210720FCF7E6
:1039100023FE322001F0F7FC41F290411020FCF729
:103920001BFE40F227211120FCF716FE322001F089
:10393000EAFC8A211220FCF70FFE322001F0E3FCA2
:103940004FF4D0511320FCF707FE06212920FCF785
:1039500003FE0D212B20FCF7FFFD322001F0D3FCEC
:1039600000212020FCF7F8FD00212120FCF7F4FDC8
:10397000322001F0C8FC00213020FCF7EDFD40F2C0
:1039800004613120FCF7E8FD40F205313220FCF7FC
:10399000E3FD00213520FCF7DFFD40F6094136202C
:1039A000FCF7DAFD4FF401713720FCF7D5FD40F24A
:1039B00001313820FCF7D0FD29463920FCF7CCFD39
:1039C00000213C20FCF7C8FD40F60A213D20FCF711
:1039D000C3FD322001F097FC00215020FCF7BCFD14
:1039E000EF215120FCF7B8FD00215220FCF7B4FD77
:1039F00059464CE100210846FCF7AEFD2146012066
:103A0000FCF7AAFD39460220FCF7A6FD41F2300181
:103A10000320FCF7A1FD00210420FCF79DFD514689
:103A20000820FCF799FD00210920FCF795FD0021F5
:103A30000A20FCF791FD01210C20FCF78DFD0021EF
:103A40000D20FCF789FD00210F20FCF785FD3220B9
:103A500001F059FC40F201110720FCF77DFD3220F6
:103A600001F051FC4FF486511020FCF775FD072141
:103A70001120FCF771FD4B4649461220FCF76CFD06
:103A80004FF430611320FCF767FD00212920FCF77B
:103A900063FD44F210012B20FCF75EFD0021502055
:103AA000FCF75AFDEF215120FCF756FD0021522072
:103AB000FCF752FD59465320FCF74EFD314660207D
:103AC000FCF74AFD01216120FCF746FD00216A2038
:103AD000FCF742FD002101E0008040428020FCF71D
:103AE0003BFD00218120FCF737FD00218220FCF7FF
:103AF00033FD00218320FCF72FFD00218420FCF7FB
:103B00002BFD00218520FCF727FD10219020FCF7DC
:103B100023FD00219220FCF71FFD01219320FCF7DB
:103B20001BFD19469520FCF717FD00219720FCF797
:103B300013FD00219820FCF70FFD40F273110720C0
:103B40007CE341F21401E720FCF706FD2146012049
:103B5000FCF702FD4FF400710220FCF7FDFC41F27E
:103B600038010320FCF7F8FC51460820FCF7F4FC70
:103B700000210920FCF7F0FC00210A20FCF7ECFCF6
:103B800000210C20FCF7E8FC00210D20FCF7E4FCF0
:103B900000210F20FCF7E0FC00211020FCF7DCFCEA
:103BA00007211120FCF7D8FC00211220FCF7D4FCDF
:103BB00000211320FCF7D0FCC82001F0A4FB41F247
:103BC00090611020FCF7C8FC40F227211120FCF77F
:103BD000C3FC322001F097FB0C211220FCF7BCFC47
:103BE000322001F090FB4FF400611320FCF7B4FC8D
:103BF00011212920FCF7B0FC0B212B20FCF7ACFC99
:103C0000322001F080FB00212020FCF7A5FC5B4660
:103C100059462120FCF7A0FC00213020FCF79CFC39
:103C20004FF4837421463120FCF796FC00213220AA
:103C3000FCF792FC4FF401713520FCF78DFC41F24A
:103C40000A613620FCF788FC29463720FCF784FC03
:103C500021463820FCF780FC29463920FCF77CFC03
:103C600040F202413C20FCF777FC40F60F413D203A
:103C7000FCF772FC00215020FCF76EFCEF21512074
:103C8000FCF76AFC00215220FCF766FC1946532021
:103C9000FCF762FC31466020FCF75EFC01216120EC
:103CA000FCF75AFC00216A20FCF756FC002180201A
:103CB000FCF752FC00218120FCF74EFC0021822001
:103CC000FCF74AFC00218320FCF746FC00218420FD
:103CD000FCF742FC00218520FCF73EFC10219020DF
:103CE000FCF73AFC4FF4C0619220FCE3214601202E
:103CF000FCF732FC39460220FCF72EFC41F2300181
:103D00000320FCF729FC00210420FCF725FC40F2ED
:103D100007210820FCF720FC00210920FCF71CFCEF
:103D200000210A20FCF718FC00210C20FCF714FCF1
:103D300000210D20FCF710FC00210F20FCF70CFCEB
:103D4000142001F0E0FA41F2B0611020FCF704FC0D
:103D500001211120FCF700FC01211720FCF7FCFBDE
:103D60004FF49C711220FCF7F7FB4FF40061132015
:103D7000FCF7F2FB09212920FCF7EEFB09212A20A0
:103D8000FCF7EAFB0021A420FCF7E6FB0021502011
:103D9000FCF7E2FBEF215120FCF7DEFB0021522073
:103DA000FCF7DAFB59465320FCF7D6FB314660207E
:103DB000FCF7D2FB01216120FCF7CEFB00216A2039
:103DC000FCF7CAFB00218020FCF7C6FB0021812004
:103DD000FCF7C2FB00218220FCF7BEFB0021832000
:103DE000FCF7BAFB00218420FCF7B6FB00218520FC
:103DF000FCF7B2FB132101E019E024E19020FCF76D
:103E0000ABFB00219220FCF7A7FB03219320FCF7DA
:103E1000A3FB49469520FCF79FFB40F27311072056
:103E2000FCF79AFB32200AE109E2D0E285E30021A7
:103E30000720FCF791FB322001F065FA4FF48E71F8
:103E40001220FCF789FB0121A420FCF785FB0F2140
:103E50000820FCF781FB08210A20FCF77DFB0821E4
:103E60000D20FCF779FB2B4629463020FCF774FB2C
:103E700007213120FCF770FB40F203613220FCF790
:103E80006BFB3D4639463320FCF766FB5146342038
:103E9000FCF762FB02213520FCF75EFB41F60F7157
:103EA0003620FCF759FB19463720FCF755FB00215B
:103EB0003820FCF751FB00213920FCF74DFB194657
:103EC0003A20FCF749FB00213B20FCF745FB07218A
:103ED0003C20FCF741FB00213D20FCF73DFB32205C
:103EE00001F011FA01210720FCF736FB0121172010
:103EF000FCF732FB322001F006FA4FF4BD511020DE
:103F0000FCF72AFB40F217211120FCF725FB4FF4A8
:103F10008F711220FCF720FB4FF470611320FCF727
:103F20001BFB00212A20FCF717FB0A212920FCF7A4
:103F300013FB4FF49F711220FCF70EFB0021502061
:103F4000FCF70AFBEF215120FCF706FB0021522071
:103F5000FCF702FB59465320FCF7FEFA314660207D
:103F6000FCF7FAFA01216120FCF7F6FA00216A2039
:103F7000FCF7F2FA00218020FCF7EEFA0021812004
:103F8000FCF7EAFA00218220FCF7E6FA0021832000
:103F9000FCF7E2FA00218420FCF7DEFA00218520FC
:103FA000FCF7DAFA13219020FCF7D6FA4946922062
:103FB000FCF7D2FA05219320FCF7CEFA00219520D8
:103FC000FCF7CAFA00219720FCF7C6FA00219820D6
:103FD000FCF7C2FA21460120FCF7BEFA294602206E
:103FE000FCF7BAFA41F238010320FCF7B5FA0021D8
:103FF0000420FCF7B1FA00210C20FCF7ADFA0021F7
:104000000F20FCF7A9FA00212020FCF7A5FA0021D7
:104010002120FCF7A1FA21210720FCF79DFA1420AA
:1040200001F071F961210720FCF796FA142001F0E4
:104030006AF940F273110720FCF78EFA142001F0A0
:1040400062F9FFF747BB00210846FCF785FA00211B
:104050000846FCF781FA00210846FCF77DFA0021AA
:104060000846FCF779FA0121A420FCF775FA142020
:1040700001F049F931466020FCF76EFA554600E040
:10408000D8E051460820FCF767FA4FF4057130205C
:10409000FCF762FA43F215713120FCF75DFA40F249
:1040A00004613220FCF758FA40F616613320FCF721
:1040B00053FA42F211213420FCF74EFA4FF4A85182
:1040C0003520FCF749FA48F207513620FCF744FA4C
:1040D00041F207413720FCF73FFA41F20341382013
:1040E000FCF73AFA20213920FCF736FA1A21902001
:1040F000FCF732FA00211020FCF72EFA07211120DC
:10410000FCF72AFA00211220FCF726FA00211320DE
:10411000FCF722FA142001F0F6F84FF4E6611020C3
:10412000FCF71AFA40F237111120FCF715FA1420A7
:1041300001F0E9F84FF4DC711220FCF70DFA1420BD
:1041400001F0E1F84FF470611320FCF705FA8021CB
:104150002A20FCF701FA48212920FCF7FDF9142058
:1041600001F0D1F821460120FCF7F6F9394602208A
:10417000FCF7F2F941F238010320FCF7EDF929468A
:104180000820FCF7E9F900210A20FCF7E5F90021F5
:104190000C20FCF7E1F900210D20FCF7DDF93021BE
:1041A0000E20FCF7D9F900215020FCF7D5F9EF21BA
:1041B0005120FCF7D1F900215220FCF7CDF95946E6
:1041C0005320FCF7C9F931466020FCF7C5F90121FD
:1041D0006120FCF7C1F900216A20FCF7BDF911212B
:1041E0009020FCF7B9F94FF4C0619220FCF7B4F9C4
:1041F00040F202419320FCF7AFF902219420FCF732
:10420000ABF9142001F07FF801210720FCF7A4F995
:10421000142001F078F861210720FCF79DF940F2A5
:1042200073110720FCF798F900212020FCF794F97E
:1042300000212120FCF790F9222100207AE10021C1
:104240000846FCF789F900210846FCF785F9142097
:1042500001F059F800210846FCF77EF900210846D4
:10426000FCF77AF900210846FCF776F900210846A8
:10427000FCF772F90121A420FCF76EF9142001F07B
:1042800042F831466020FCF767F940F60601082045
:10429000FCF762F940F2037319463020FCF75CF931
:1042A00001213120FCF758F904213220FCF754F9A0
:1042B0004FF481713320FCF74FF94D4649463420C5
:1042C000FCF74AF940F203113520FCF745F91F21AC
:1042D0003620FCF741F919463720FCF73DF901215A
:1042E0003820FCF739F904213920FCF735F915217C
:1042F0009020FCF731F94FF482611020FCF72CF983
:1043000040F247211120FCF727F94FF4DE7112200B
:10431000FCF722F94FF460611320FCF71DF97820B7
:1043200000F0F1FF21460120FCF716F94FF400716F
:104330000220FCF711F941F230010320FCF70CF9DF
:1043400008210A20FCF708F900210C20FCF704F9E9
:1043500020210E20FCF700F900210F20FCF7FCF8CB
:1043600000212020FCF7F8F800212120FCF7F4F8C8
:104370003D212A20FCF7F0F8142000F0C4FF2D2185
:104380002920FCF7E9F800215020FCF7E5F84DF270
:10439000EF015120FCF7E0F800215220FCF7DCF897
:1043A00059465320FCF7D8F800216120FCF7D4F8D7
:1043B00000216A20FCF7D0F829469220FCF7CCF8BF
:1043C00005219320FCF7C8F82146FFF7B8BB01216F
:1043D0000020FCF7C1F80A2000F095FF41F22861A7
:1043E0001020FCF7B9F80E211220FCF7B5F840F6C2
:1043F00039211320FCF7B0F80A2000F084FF402197
:104400001120FCF7A9F850211520FCF7A5F80A2087
:1044100000F079FF1E211220FCF79EF80A2000F020
:1044200072FF4FF4B1511020FCF796F842F6392193
:104430001320FCF791F80A2000F065FF21460120C7
:10444000FCF78AF849460220FCF786F841F2380169
:104450000320FCF781F851460820FCF77DF808217D
:104460000A20FCF779F800213020FCF775F840F2BB
:1044700002413120FCF770F84FF483713220FCF7D1
:104480006BF840F203513320FCF766F84FF4827169
:104490003420FCF761F840F201313520FCF75CF87C
:1044A00029463620FCF758F840F205313720FCF752
:1044B00053F84FF402713820FCF74EF840F60B71B8
:1044C0003920FCF749F802214120FCF745F8314634
:1044D0006020FCF741F801216120FCF73DF84FF422
:1044E0000471902000E0CAE0FCF736F84FF48571C3
:1044F0009220FCF731F804219320FCF72DF8214697
:10450000A020FCF729F801210720FCF725F821213C
:104510000720FCF721F823210720FCF71DF83321A1
:104520000720FCF719F840F233110720FCF714F8C4
:104530000021A020FCF710F883E530211520FCF7BE
:104540000BF810219A20FCF707F820211120FCF726
:1045500003F843F228411020FBF7FEFF022112204E
:10456000FBF7FAFF41F238011320FBF7F5FF282093
:1045700000F0C9FE12210846FBF7EEFF282000F0EC
:10458000C2FE43F220411020FBF7E6FF43F2380160
:104590001320FBF7E1FF462000F0B5FE002130209C
:1045A000FBF7DAFF40F202413120FBF7D5FF40F282
:1045B00007313220FBF7D0FF4FF441713320FBF776
:1045C000CBFF04213420FBF7C7FF40F20141352027
:1045D000FBF7C2FF29463620FBF7BEFF40F205314C
:1045E0003720FBF7B9FF4FF4C26319463820FBF7B9
:1045F000B3FF19463920FBF7AFFF21460120FBF737
:10460000ABFF49460220FBF7A7FF41F23001032030
:10461000FBF7A2FF40F608010820FBF79DFF0821E9
:104620000A20FBF799FF31466020FBF795FF012137
:104630006120FBF791FF4FF49F719020FBF78CFFF7
:1046400021469220FBF788FF21469320FBF784FF49
:104650004FF44051A020FBF77FFF1021A320FBF770
:104660007BFF01210720FBF777FF21210720FBF7C4
:1046700073FF23210720FBF76FFF33210720FBF790
:104680006BFF40F23311A0E62DE9F843BC4C1E4607
:104690008046A388089FA3F5D040043802D1A079B2
:1046A000012807D0A2EB0800401C84B20D464FF051
:1046B000D84929E025880846A91AA5EB0803002552
:1046C000A57132462A2565812B26491E5B1EA681CF
:1046D00089B29BB20097FFF7D7FF0120A0716681D6
:1046E000A581BDE8F88329464046FBF75DFFFBF74F
:1046F00042FF0020494603E0A1F88070401C80B2D0
:10470000A042F9D36D1CADB2B542ECD9E9E72DE971
:10471000F0478246A2EB0A00401C0E4685B2981B69
:10472000401C87B200244FF0D849DDF8208015E006
:10473000301981B25046FBF737FFFBF71CFF002012
:10474000494607E004FB050338F81320A1F8802050
:10475000401C80B2A842F5D3641CA4B2BC42E7D38B
:10476000BDE8F0872DE9FF4F1D460C468A465807E5
:1047700000D0012000EBD500690810FB01F0203AC1
:1047800000F0FF09D0B20026DFF8F4B1029044E057
:104790000C2D11D0102D14D0182D40D1029879492C
:1047A00000EBC00001EB80004FF00008875D380689
:1047B0000CD5754802880DE00298744900EB400062
:1047C000F0E77349029801EB0010EDE70D9828B966
:1047D0006D48428821460098FCF755F97806070E87
:1047E000641CBBF80200A4B2A04218D9A4EB0A00D2
:1047F000A84209D100985446401C80B20090BBF8F2
:10480000001081420BD906E008F1010000F0FF081A
:10481000B8F1080FCBD3761CF6B24E45B8D3BDE83D
:10482000FF8F0246012000E05043491EC9B2FBD26F
:1048300070472DE9FF4F81B00026DDF838A01D46F6
:10484000934681463446B0464FEA5A0727E0281B74
:10485000401EC1B20A20FFF7E4FFBBFBF0F00A21C3
:10486000B0FBF1F201FB120026B9691E8C4201DA9D
:1048700048B101263030C2B207FB049080B25346E3
:10488000CDF8008006E007FB049080B2534620225A
:10489000CDF800800299FFF765FF641CE4B2AC42DA
:1048A000D5D305B0BDE8F08F2DE9FF4F81B04FF0B3
:1048B0000008DDE90EBA1E46814644460AF00105AD
:1048C0004FEA5B072CE0301B401EC1B20A20FFF705
:1048D000A8FF0399B1FBF0F00A21B0FBF1F201FB54
:1048E0001200B8F1000F05D1711E8C4202DA48B1F6
:1048F0004FF001083030C2B207FB049080B25B4633
:10490000009508E05FEA0A6007FB049080B25B460E
:10491000009508D530220299FFF724FF641CE4B209
:10492000B442D0D3BDE72022F5E72DE9F84F044685
:1049300000F0FF0910190D46DDE90AB61FFA80F8EC
:10494000581987B24FF0000A12E0444503D305EB33
:104950000B004C4685B2BD420FD25B46294620462D
:10496000CDF800A0FFF7FEFE04EB5B0084B2761CDE
:104970003278A2F120005E28E7D9BDE8F88F000068
:1049800034000020327C000814000020CE710008A2
:10499000427600082DE9FC4100240121312001F07C
:1049A0007CFA4FF48070002500908DF804500126A9
:1049B0008DF8076002208DF805006946974800F0E1
:1049C0002FFE1F20964F00908DF804608DF8065042
:1049D0006946384600F024FE1F21384600F09AFE52
:1049E000FF2000908DF804508DF8076069468D48CF
:1049F00000F016FE00F036F98021122000F0EDF9EB
:104A000010B10120BDE8FC81322000F07CFC0B20BD
:104A100000F002FA732804D10A2000F0FDF976288C
:104A200001D00220EEE7804D05EB4400417815F8F7
:104A3000140000F0D2F9022000F065FC641CA4B25E
:104A4000AB2CF1D30020DDE770B50025E7212C4623
:104A5000012806D0022808D003280AD004280FD144
:104A60000BE0E5215A255C240AE0E5215825602465
:104A700006E0E52184254C2402E0E521962540242A
:104A8000132000F0AAF92946012000F0A6F92146DA
:104A9000BDE87040022000F0A0B970B58026222544
:104AA0005E2430B1012808D003280AD004280FD191
:104AB0000BE0402611252F240AE066261B254B24F7
:104AC00006E099262825712402E0C02633258D248E
:104AD00031464F2000F081F93146502000F07DF939
:104AE0000021512000F079F92946522000F075F993
:104AF0002146532000F071F93146542000F06DF941
:104B0000BDE870409E21582000F067B9002130B107
:104B1000012806D0032806D0042807D105E0B021DB
:104B200004E0982102E0182100E03021552000F037
:104B300054B9402130B1012806D0032806D00428FA
:104B400007D105E0302104E0382102E0502100E0E7
:104B50006021562000F041B970B50421C0248025A1
:104B6000072816D2DFE800F0150406090B0E120024
:104B7000242100E0142180240BE0142109E01421F9
:104B8000402405E014218024C02502E01421A02443
:104B900040253A2000F021F92146682000F01DF957
:104BA0002946BDE87040672000F017B92DE9F041B3
:104BB000044600EB420086B201EB430085B20F468B
:104BC000B5F5447F02D9A5F54475ADB2032000F0D8
:104BD00023F906F00302214600F0F00062F39F0182
:104BE0000143032000F0F9F8C4F38701192000F015
:104BF000F4F8C6F387011A2000F0EFF8322000F035
:104C00000BF9C7F3C701172000F0E7F8C5F3C70198
:104C1000BDE8F041182000F0E0B8000000000240BC
:104C200000100240001402408E8900081CB540208C
:104C3000009001208DF8040000208DF806006946E0
:104C4000884800F0EDFC1CBD1CB540200090002001
:104C50008DF8040001208DF807006946814800F0B6
:104C6000DFFC1CBD7CB50121182001F016F94020A5
:104C7000002400908DF8044001258DF80750022093
:104C8000784E8DF805006946304600F0C9FC2020BA
:104C900000908DF804508DF806406946304600F0CB
:104CA000BFFCFFF7C3FF7CBD70B56F4C0120C4F89B
:104CB0009802C4F894021E2004F5257400F0F5FA59
:104CC000002565601E2000F0F0FA256070BD70B50B
:104CD000654C0020C4F898021E2004F5257400F0ED
:104CE000E4FA012525601E2000F0DFFA6560BDE8CA
:104CF00070401E2000F0D9BA70B51E2000F0D5FA21
:104D0000594C0120C4F89802C4F894021E2004F5FE
:104D1000257400F0CAFA002525601E2000F0C5FAAF
:104D20006560BDE870401E2000F0BFBA2DE9F0417B
:104D300000254D4C0746A8460126380602D5C4F882
:104D4000986201E0C4F898827806070E1E2000F0F1
:104D5000ACFAC4F894621E2000F0A7FAC4F894825A
:104D60006D1CEDB2082DE8D3FFF76EFF1E2000F09A
:104D70009CFAC4F894621E2000F097FAD4F8180246
:104D800008B1012500E00025C4F89482FFF74EFF2A
:104D90002846BDE8F0812DE9F0410024FFF754FFDB
:104DA0000825314E0127A0461E2000F07EFAC6F8E5
:104DB00094726006040ED6F8180208B1641CE4B2BE
:104DC0001E2000F072FAC6F894826D1E15F0FF05E1
:104DD000EAD1FFF72BFF2046DBE770B50D4606460C
:104DE0000024FFF761FF4220FFF7A0FF00B101247C
:104DF000322000F05AFA3046FFF798FF00B1012444
:104E0000322000F052FA2846FFF790FF00B101244B
:104E1000FFF75DFF204670BD10B50446FFF744FF65
:104E20004220FFF783FF322000F03FFA2046FFF7D1
:104E30007DFF322000F039FAFFF749FF322000F001
:104E400034FAFFF731FF4320FFF770FF322000F004
:104E50002CFAFFF7A0FF0446FFF74EFFFFF737FFDE
:104E6000204610BD00100240000042422DE9F041F2
:104E70004FF48078404602F01DF8012816D1254DE8
:104E80002878022812D20027234C012698B1C4F8B2
:104E90008072022004F5207400F007FA27610220D6
:104EA00000F003FA26612878401C28704046BDE8CF
:104EB000F04102F008B8C4F89072022004F52074A2
:104EC00000F0F3F92661022000F0EFF92660EAE72E
:104ED0003EB50821002001F0C9F84FF4807000248D
:104EE00000908DF8044008208DF8050001258DF80C
:104EF0000650684601F08EFF17208DF808008DF8E7
:104F000009408DF80A408DF80B5002A800F0C9FA4C
:104F10003EBD000018000020000042427FB50C4654
:104F200005460121022000F0D6FF0195ADF80040B2
:104F30000024CB4DADF80840ADF802406946284644
:104F400001F0FAFA01224121284601F07EFE1D20DF
:104F50008DF80C008DF80D4003208DF80E00012017
:104F60008DF80F0003A800F09CFA0121284601F0FB
:104F70005BFB7FBD10B5BA4C0121204601F079FEE4
:104F800000280BD00121204601F07FFEB548D0F863
:104F9000A81221B15FF00001C0F8A81210BD0121D4
:104FA000FAE72DE9F041884606468AB00121022041
:104FB00000F091FF0121222000F06FFFAA4F022292
:104FC0000521384600F0B5FB2020059002208DF821
:104FD000180000248DF81A4001258DF81B5003207D
:104FE0008DF8190005A9384600F01AFB08969C4E6A
:104FF000ADF81C80ADF82440ADF81E4007A930463E
:1050000001F09AFA7020ADF80000ADF80250029459
:10501000ADF80C406946304601F03CFB08213046B3
:1050200001F053FC0121304601F0E4FA0121304641
:1050300001F0FAFA0AB0BDE8F0812DE9F0438946A3
:10504000804687B00121082000F045FF0121084675
:1050500000F023FF0024854F01258DF8144002261F
:1050600004958DF8176004A9384600F0D9FA01219B
:10507000384600F051FB7E4FADF80090CDF804802B
:10508000ADF80840ADF802406946384601F054FAE0
:1050900078480146048044808580C4800481384675
:1050A00001F004FD0121384601F0BEFA012203217E
:1050B000384601F0CAFD32208DF80C008DF80D60E5
:1050C0008DF80E408DF80F5003A800F0EAF907B0F4
:1050D000BDE8F08370B5684C654D2078000633D488
:1050E0000121284601F0C5FD38B12178480604D5D4
:1050F000C843800612D0491C21700221284601F0C5
:10510000B8FD08B3207841060FD540F0800020702C
:10511000284601F059FD6080002112E041F0800036
:1051200020704FF6FF706080E7E7002020706080FD
:105130000146284601F042FA2078022140F0400062
:105140002070284601F01BFC2846BDE87040032172
:1051500001F09BBD70B50D4606468AB001210420C2
:1051600000F0B9FE0121022000F097FE4020022449
:1051700008908DF824408DF8254008A93A4800F0A1
:105180004FFA0696ADF8145000253C4EADF81C5071
:10519000ADF8165005A9304601F0CEF97020ADF8F3
:1051A00000000120ADF802000295ADF80C40694600
:1051B000304601F043FA0821304601F080FB01211E
:1051C000304601F017FA0121304601F02DFA0AB0FD
:1051D00070BD10B52A4C0121204601F04AFD50B1A6
:1051E0002049D1F8A80260B15FF00000C1F8A80220
:1051F0002149002048702046BDE81040012101F0FF
:1052000044BD0120F2E77FB50C4605460121102080
:1052100000F061FEADF800400020194CADF8080028
:10522000ADF8020001956946204601F085F901229A
:105230004121204601F009FD0121204601F0F4F949
:1052400036208DF80C0001208DF80D0003218DF81B
:105250000E108DF80F0003A800F023F97FBD0000A9
:10526000000400400080424200040240000002406E
:10527000000C0040420000201A00002000080040FE
:105280000010004010B504466FF0040000F04AF929
:105290002948E10801EB41020170C2EBC1114FF650
:1052A000FF7202EAC101418010BD234909784843D9
:1052B0004FF0E021486100228A61086940F0010056
:1052C00008610869C30701D0C003FAD5086920F056
:1052D000010008618A6170471749498848434FF0C7
:1052E000E021486100228A61086940F001000861FC
:1052F0000869C30701D0C003FAD5086920F001008E
:1053000008618A61704770B54FF40775B0FBF5F11D
:10531000CCB2B0FBF5F105FB110604E02846FFF71F
:10532000DBFF641EE4B2002CF8D1002E03D030461F
:10533000BDE87040D0E770BD1E00002070474249B4
:105340000A885206FCD5C2B28A807047F0B506467C
:10535000012187B0084600F0A0FD0121102000F0D7
:10536000C4FD3A4F07220921384600F0E2F907222E
:105370000A21384600F0DDF94FF4C06004900220A5
:105380008DF814008DF8150000248DF816400125C5
:105390008DF8175004A9384600F042F9ADF80440E2
:1053A000ADF80640ADF80840ADF80C400C20264C96
:1053B000ADF80A0000966946204600F0C8FE0121BB
:1053C000204600F035FF012240F22551204600F032
:1053D000CEFF25208DF8180003208DF819008DF8D8
:1053E0001A008DF81B5006A800F05BF807B0F0BD5E
:1053F00070B5154C40F22551204600F0DAFF002828
:105400000ED0204600F03EFFC2B2114801880B04C6
:1054100006D44C044FF0000306D50A2A01D00380BD
:1054200070BD41F400410DE00D2A09D0C1F30D0417
:10543000084D491C89B22A550180C729EFD870BD93
:1054400041F48041018070BD001001400000024025
:10545000220000204C0000200948804709480047EE
:10546000FEE7FEE7FEE7FEE7FEE7FEE7FEE7FEE714
:10547000FEE7FEE704480549054A064B7047000071
:105480003B0400088901000878010020780700200B
:105490007803002078030020284908432849086041
:1054A000704730B50F22C47801780123FCB1244C39
:1054B000246801F1E02104F4E064C4F5E064C4F37D
:1054C0000724C4F10405E2404478AC4085781540D7
:1054D00025432A0181F80024007800F01F018B4049
:1054E0004009800000F1E020C0F8003130BD01F03B
:1054F0001F0083404809800000F1E020C0F880319F
:1055000030BD104A114001430D48001F0160704733
:105510000B4A121D0029116801D0014300E08143AC
:10552000116070474FF0E0210428086903D020F093
:1055300004000861704740F00400FAE70000FA0533
:105540000CED00E080FFFF1F824910B5884206D1B4
:105550000121084600F0D3FC002101205BE07E49D8
:10556000884206D10121022000F0C9FC002102205E
:1055700051E07A49884206D10121042000F0BFFCA5
:105580000021042047E07649884206D10121082005
:1055900000F0B5FC002108203DE07249884206D1A8
:1055A0000121102000F0ABFC0021102033E06E49F7
:1055B000884206D10121202000F0A1FC00212020FA
:1055C00029E06A49884206D10121402000F097FC79
:1055D000002140201FE06649884206D10121802039
:1055E00000F08DFC0021802015E06249884202D144
:1055F000012184150AE06049884202D10121441545
:1056000004E05E4988420AD101210415204600F0D9
:1056100076FC00212046BDE8104000F070BC10BDB3
:10562000F0B50023012403270D6804FA03F21540A6
:10563000954242D1D0F800C05E0007FA06F52CEA88
:10564000050CC0F800C091F804C0D0F800E00CFAD6
:1056500006FC4CEA0E0CC0F800C091F804C0BCF186
:10566000010F02D0BCF1020F1FD1D0F808C02CEA04
:10567000050CC0F808C091F805C0D0F808E00CFA95
:1056800006FC4CEA0E0CC0F808C0D0F804C02CEAA6
:10569000020CC0F804C0426891F806C00CFA03FC82
:1056A0001FFA8CFC42EA0C024260C268AA43C26044
:1056B000CA79C568B2402A43C2605B1C102BB3D3C1
:1056C000F0BD4FF6FF7101600021017141718171E0
:1056D000C171704708B541F480320092C261C16166
:1056E0000099C161C169C069009008BD02460020EF
:1056F00012690A4200D001207047006980B27047E9
:105700000246002052690A4200D0012070474069D9
:1057100080B2704701837047418370470AB10183AB
:105720007047418370474161704742694A40426116
:1057300070474B07DB0E9A40C90810B500EB81009B
:10574000016A0F249C40A1430162016A1143016276
:1057500010BD0000000002400004024000080240AA
:10576000000C0240001002400014024000180240E9
:10577000001C024000200240002402400028024099
:105780008100A1F1C04148B143F2D200C1F800004C
:105790006FF070404860C1F8040170474FF020423C
:1057A00043F2DB001060F3E710B5D0E901121143BA
:1057B000D0E903231A43114342691143826911431B
:1057C000C2691143026A1143426A1143826A11435A
:1057D000C26A1143026B114302689200A2F1C042F7
:1057E00011608168082907D101688900A1F1C041D1
:1057F0000A6842F040020A60416BD1E9002342EAA4
:1058000003128B688C891B0243EA04431A430B8AF8
:1058100042EA03520B7D896942EA03620A43016846
:105820008900A1F1C0414A60C16AB1F5804F08D03A
:1058300000686FF070418000A0F1C040C0F8041112
:1058400010BD816BD1E9002342EA03128B680C8AF8
:105850001B0243EA04531A430B7D896942EA03623F
:1058600000680A438000A0F1C040C0F8042110BDC8
:1058700000210222C0E900128160C1600161416122
:105880008161D202C161C0E908125200C0E90A2157
:105890000163CB494163816370478000A0F1C04040
:1058A0000029016802D041F0010101E0C54A114020
:1058B0000160704710B5182440234FF020414FF08D
:1058C000FC32102805D041F8804F4B608A60CA60D6
:1058D00010BD0C664B668A66CA6610BD30B5D0E94D
:1058E00001121143D0E903231A431143426941EAEB
:1058F0004221826941EA4231C26941F00804D2E999
:10590000001341EA03211389127B1B0443EA02625C
:10591000036A1143D3E9002542EA05221D891B7B56
:105920002D0445EA03631A4303684FF02040102B0F
:1059300004D040F8804F8160C26030BD046681664B
:10594000C26630BD10210160002141608160C160EC
:10595000016141618161C269FC211160C2695160CC
:10596000C2699160C269D160026A1160026A5160C5
:10597000026A9160006AC16070474FF0204251B1E5
:10598000102804D052F8800F40F004000AE0106E96
:1059900040F004000AE08B49C91E102804D052F8D8
:1059A000800F084010607047106E08401066704706
:1059B0004FF0204251B1102804D052F8800F40F02F
:1059C00040000AE0106E40F040000AE07D493F3997
:1059D000102804D052F8800F084010607047106EF5
:1059E0000840106670474FF02041102802D0D1F8CF
:1059F00094007047486F70474FF02040182140F8DE
:105A0000A01F002141604FF0FC318160C160016145
:105A1000704710B5D0E9001241EA42228168102394
:105A200043EA41310A434FF0204141F8A02FC268B8
:105A3000D2E9003443EA04231489127B240444EAA3
:105A4000026213438B600269D2E9003443EA042303
:105A50001489127B240444EA02621343CB60406938
:105A6000D0E9002342EA03220389007B1B0443EAB6
:105A7000006002430A6110BD002101604160816045
:105A8000C268FC211160C2685160C2689160C2683E
:105A9000D160026911600269516002699160026916
:105AA000D160426911604269516042699160406908
:105AB000C16070474FF02041002851F8A00F02D07C
:105AC00040F0040002E03F4AD21E104008607047D8
:105AD00010B54FF480744FF0204372B1102804D0F9
